:100000000C9434000C9451000C9451000C94510049
:100010000C9451000C9451000C9451000C9451001C
:100020000C9451000C9451000C9451000C9451000C
:100030000C9451000C9451000C9451000C945100FC
:100040000C9451000C9451000C9451000C945100EC
:100050000C945100A300B500BB00C500D300E5001F
:10006000F70009011B012D0111241FBECFE5D8E0C7
:10007000DEBFCDBF10E0A0E6B0E0E6E4F7E002C0EE
:1000800005900D92A836B107D9F720E0A8E6B0E0B8
:1000900001C01D92A037B207E1F70E944A030C94F9
:1000A000A1030C94000010926B0080E00E944F03AB
:1000B00080936B008130C9F086E690E00E942603B1
:1000C000813099F084E690E00E942603813069F047
:1000D00082E690E00E942603813039F080E690E0CD
:1000E0000E942603813009F0089580E0089568E6B3
:1000F00070E080916A000E94750380936B002FEF7F
:1001000082E597E0215080409040E1F700C0000078
:1001100080916B00813009F4B6C080916800811134
:1001200005C0809169008F5F80936900E09169004C
:100130008E2F90E08A30910508F0A1C0FC01E65DA9
:10014000FF4F0C949B0386E690E00E943E0384E6FA
:1001500090E00E943E0382E690E00E943E0380E62B
:1001600090E00E943E0381E0089586E690E00E94C0
:10017000320381E0089586E690E00E94320384E62F
:1001800090E00E94320381E0089586E690E00E94AC
:10019000320384E690E00E94320382E690E00E94FF
:1001A000320381E0089586E690E00E94320384E6FF
:1001B00090E00E94320382E690E00E94320380E6E3
:1001C00090E00E94320381E0089586E690E00E946C
:1001D0003E0384E690E00E94320382E690E00E94B3
:1001E000320380E690E00E94320381E0089586E6C3
:1001F00090E00E943E0384E690E00E943E0382E687
:1002000090E00E94320380E690E00E94320381E099
:10021000089586E690E00E943E0384E690E00E9406
:100220003E0382E690E00E943E0380E690E00E945A
:10023000320381E0089586E690E00E943E0384E662
:1002400090E00E943E0382E690E00E943E0380E63A
:1002500090E00E943E0381E0089586E690E00E94CF
:10026000320384E690E00E943E0382E690E00E9422
:100270003E0380E690E00E943E0381E008951092E4
:10028000690081E0089580E0089591E090936F0007
:10029000843008F090E090936E0021E020936D0090
:1002A000683008F020E020936C00992309F481C0A5
:1002B000222309F480C0813029F138F0823009F41A
:1002C0003EC0833009F458C078C0413061F42AB38D
:1002D00081E090E002C0880F991F6A95E2F7822BB7
:1002E0008ABB80E0089541116AC02AB381E090E0A2
:1002F00002C0880F991F6A95E2F7809582238ABB16
:1003000080E00895413061F427B381E090E002C0BD
:10031000880F991F6A95E2F7822B87BB80E00895CA
:1003200041114FC027B381E090E002C0880F991FB0
:100330006A95E2F78095822387BB80E0089541307B
:1003400061F424B381E090E002C0880F991F6A95A0
:10035000E2F7822B84BB80E00895411134C024B3BE
:1003600081E090E002C0880F991F6A95E2F78095BE
:10037000822384BB80E00895413061F421B381E0A1
:1003800090E002C0880F991F6A95E2F7822B81BB2B
:1003900080E00895411119C021B381E090E002C0CE
:1003A000880F991F6A95E2F78095822381BB80E0D0
:1003B000089581E0089581E0089581E0089580E046
:1003C000089580E0089580E0089580E0089591E028
:1003D00090936F00843008F090E090936E0021E0DD
:1003E00020936D00683008F020E020936C00992382
:1003F00009F481C0222309F480C0813029F138F04A
:10040000823009F43EC0833009F458C078C04130CE
:1004100061F42BB381E090E002C0880F991F6A95C8
:10042000E2F7822B8BBB80E0089541116AC02BB3A9
:1004300081E090E002C0880F991F6A95E2F78095ED
:1004400082238BBB80E00895413061F428B381E0C2
:1004500090E002C0880F991F6A95E2F7822B88BB53
:1004600080E0089541114FC028B381E090E002C0C0
:10047000880F991F6A95E2F78095822388BB80E0F8
:100480000895413061F425B381E090E002C0880F07
:10049000991F6A95E2F7822B85BB80E00895411190
:1004A00034C025B381E090E002C0880F991F6A959F
:1004B000E2F78095822385BB80E00895413061F4A6
:1004C00022B381E090E002C0880F991F6A95E2F79D
:1004D000822B82BB80E00895411119C022B381E0D4
:1004E00090E002C0880F991F6A95E2F780958223F9
:1004F00082BB80E0089581E0089581E0089581E065
:10050000089580E0089580E0089580E0089580E0F7
:10051000089591E090936F00843008F090E09093FC
:100520006E0021E020936D00683008F020E02093F9
:100530006C00992309F47CC0222309F47BC081302C
:1005400019F130F08230E1F1833009F455C074C004
:1005500089B390E0062E02C0959587950A94E2F73C
:1005600080FF05C081E0FA01808380E0089589B3AF
:1005700090E002C0959587956A95E2F780FD5EC090
:10058000FA01108280E0089586B390E0062E02C042
:10059000959587950A94E2F780FF05C081E0FA01FE
:1005A000808380E0089586B390E002C0959587959A
:1005B0006A95E2F780FD44C0FA01108280E0089558
:1005C00083B390E0062E02C0959587950A94E2F7D2
:1005D00080FF05C081E0FA01808380E0089583B345
:1005E00090E002C0959587956A95E2F780FD2AC054
:1005F000FA01108280E0089580B390E0062E02C0D8
:10060000959587950A94E2F780FF05C081E0FA018D
:10061000808380E0089580B390E002C0959587952F
:100620006A95E2F780FD10C0FA01108280E008951B
:1006300081E0089581E0089581E0089580E00895C3
:1006400080E0089580E0089580E0089541E0FC0195
:10065000618180810E94450191E0813009F090E044
:10066000892F089541E0FC01618180810E94E701AA
:1006700091E0813009F090E0892F089540E0FC017D
:10068000618180810E94E70191E0813009F090E072
:10069000892F08950E9453000E947700FDCF81307A
:1006A00069F028F0823089F08330B1F01CC040E05E
:1006B00062E083E00E94450180E0089540E063E04D
:1006C00083E00E94450180E0089540E064E083E01B
:1006D0000E94450180E0089540E065E083E00E94CB
:1006E000450180E0089581E00895813069F028F0A7
:1006F000823089F08330B1F01CC0AB0162E083E04E
:100700000E94890280E00895AB0163E083E00E94CB
:10071000890280E00895AB0164E083E00E948902D1
:1007200080E00895AB0165E083E00E94890280E0EB
:10073000089581E00895EE0FFF1F0590F491E02DDC
:060740000994F894FFCFBC
:08074600030703030301030094
:00000001FF
