:100000000C9434000C9451000C9451000C94510049
:100010000C9451000C9451000C9451000C9451001C
:100020000C9451000C9451000C9451000C9451000C
:100030000C9451000C9451000C9451000C945100FC
:100040000C9451000C9451000C9451000C945100EC
:100050000C9451009F00B100B700C100CF00E10037
:10006000F30005011701290111241FBECFE5D8E0D7
:10007000DEBFCDBF10E0A0E6B0E0E6E2F6E002C0F1
:1000800005900D92A836B107D9F720E0A8E6B0E0B8
:1000900001C01D92AE36B207E1F70E94BA020C947D
:1000A00011030C94000010926900809168000E9476
:1000B000BF02809369008130D9F086E690E00E940B
:1000C00096028130B9F084E690E00E949602813079
:1000D00099F082E690E00E949602813079F080E605
:1000E00090E00E94960291E0813049F490E007C0D0
:1000F00090E005C090E003C090E001C090E0892F3F
:100100000895CF93DF931F92CDB7DEB71982BE015A
:100110006F5F7F4F809168000E94E50280936900C5
:10012000813009F4A8C0E1E08981813009F0E0E084
:100130008E2F90E0FC01E65DFF4F0C940B0386E6EA
:1001400090E00E94AE0284E690E00E94AE0282E659
:1001500090E00E94AE0280E690E00E94AE0281E054
:100160008BC086E690E00E94A20281E085C086E610
:1001700090E00E94A20284E690E00E94A20281E048
:100180007BC086E690E00E94A20284E690E00E9496
:10019000A20282E690E00E94A20281E06DC086E6A3
:1001A00090E00E94A20284E690E00E94A20282E611
:1001B00090E00E94A20280E690E00E94A20281E00C
:1001C0005BC086E690E00E94AE0284E690E00E946A
:1001D000A20282E690E00E94A20280E690E00E94E5
:1001E000A20281E049C086E690E00E94AE0284E669
:1001F00090E00E94AE0282E690E00E94A20280E6B9
:1002000090E00E94A20281E037C086E690E00E9462
:10021000AE0284E690E00E94AE0282E690E00E9488
:10022000AE0280E690E00E94A20281E025C086E650
:1002300090E00E94AE0284E690E00E94AE0282E668
:1002400090E00E94AE0280E690E00E94AE0281E063
:1002500013C086E690E00E94A20284E690E00E942D
:10026000AE0282E690E00E94AE0280E690E00E943C
:10027000AE0281E001C080E00F90DF91CF91089540
:1002800091E090936D00843008F090E090936C00C2
:1002900021E020936B00643008F020E020936A0096
:1002A000992309F481C0222309F480C0813029F107
:1002B00038F0823009F43EC0833009F458C078C069
:1002C000413061F42AB381E090E002C0880F991FA9
:1002D0006A95E2F7822B8ABB80E0089541116AC0DB
:1002E0002AB381E090E002C0880F991F6A95E2F777
:1002F000809582238ABB80E00895413061F427B362
:1003000081E090E002C0880F991F6A95E2F7822B86
:1003100087BB80E0089541114FC027B381E090E092
:1003200002C0880F991F6A95E2F78095822387BBE8
:1003300080E00895413061F424B381E090E002C090
:10034000880F991F6A95E2F7822B84BB80E008959D
:10035000411134C024B381E090E002C0880F991F9E
:100360006A95E2F78095822384BB80E0089541304E
:1003700061F421B381E090E002C0880F991F6A9573
:10038000E2F7822B81BB80E00895411119C021B3AF
:1003900081E090E002C0880F991F6A95E2F780958E
:1003A000822381BB80E0089581E0089581E0089573
:1003B00081E0089580E0089580E0089580E0089548
:1003C00080E0089591E090936D00843008F090E013
:1003D00090936C0021E020936B00643008F020E0E3
:1003E00020936A00992309F481C0222309F480C074
:1003F000813029F138F0823009F43EC0833009F4AD
:1004000058C078C0413061F42BB381E090E002C065
:10041000880F991F6A95E2F7822B8BBB80E00895C5
:1004200041116AC02BB381E090E002C0880F991F90
:100430006A95E2F7809582238BBB80E00895413076
:1004400061F428B381E090E002C0880F991F6A959B
:10045000E2F7822B88BB80E0089541114FC028B39A
:1004600081E090E002C0880F991F6A95E2F78095BD
:10047000822388BB80E00895413061F425B381E098
:1004800090E002C0880F991F6A95E2F7822B85BB26
:1004900080E00895411134C025B381E090E002C0AE
:1004A000880F991F6A95E2F78095822385BB80E0CB
:1004B0000895413061F422B381E090E002C0880FDA
:1004C000991F6A95E2F7822B82BB80E00895411163
:1004D00019C022B381E090E002C0880F991F6A958D
:1004E000E2F78095822382BB80E0089581E0089541
:1004F00081E0089581E0089580E0089580E0089506
:1005000080E0089580E0089510926D0091E08430BD
:1005100008F490E090936C0010926B0081E06430DE
:1005200008F480E080936A0081E0089541E0FC01D6
:10053000618180810E94400191E0813009F090E06A
:10054000892F089541E0FC01618180810E94E201D0
:1005500091E0813009F090E0892F089540E0FC019E
:10056000618180810E94E20191E0813009F090E098
:10057000892F08950E9453000E948100FFCF81308F
:1005800069F028F0823089F08330B1F01CC040E07F
:1005900062E083E00E94400180E0089540E063E073
:1005A00083E00E94400180E0089540E064E083E041
:1005B0000E94400180E0089540E065E083E00E94F1
:1005C000400180E0089581E00895813069F028F0CD
:1005D000823089F08330B1F01CC0AB0162E083E06F
:1005E0000E94840280E00895AB0163E083E00E94F2
:1005F000840280E00895AB0164E083E00E948402FD
:1006000080E00895AB0165E083E00E94840280E011
:10061000089581E00895EE0FFF1F0590F491E02DFD
:060620000994F894FFCFDD
:080626000303030203010300BA
:00000001FF
